{
  "_format": "hh-sol-artifact-1",
  "contractName": "Tweets",
  "sourceName": "contracts/Tweets.sol",
  "abi": [
    {
      "inputs": [
        {
          "internalType": "string",
          "name": "tweetcontent",
          "type": "string"
        }
      ],
      "stateMutability": "nonpayable",
      "type": "constructor"
    },
    {
      "anonymous": false,
      "inputs": [
        {
          "indexed": false,
          "internalType": "uint256",
          "name": "id",
          "type": "uint256"
        },
        {
          "indexed": false,
          "internalType": "uint256",
          "name": "tipAmount",
          "type": "uint256"
        },
        {
          "indexed": false,
          "internalType": "address payable",
          "name": "author",
          "type": "address"
        }
      ],
      "name": "PostTipped",
      "type": "event"
    },
    {
      "anonymous": false,
      "inputs": [
        {
          "indexed": false,
          "internalType": "uint256",
          "name": "id",
          "type": "uint256"
        },
        {
          "indexed": false,
          "internalType": "string",
          "name": "content",
          "type": "string"
        },
        {
          "indexed": false,
          "internalType": "address payable",
          "name": "author",
          "type": "address"
        },
        {
          "indexed": false,
          "internalType": "uint256",
          "name": "likes",
          "type": "uint256"
        }
      ],
      "name": "Tweeted",
      "type": "event"
    },
    {
      "inputs": [],
      "name": "TotalTweets",
      "outputs": [
        {
          "internalType": "uint256",
          "name": "",
          "type": "uint256"
        }
      ],
      "stateMutability": "view",
      "type": "function"
    },
    {
      "inputs": [
        {
          "internalType": "string",
          "name": "_content",
          "type": "string"
        },
        {
          "internalType": "string",
          "name": "_hash",
          "type": "string"
        }
      ],
      "name": "createTweetImg",
      "outputs": [],
      "stateMutability": "nonpayable",
      "type": "function"
    },
    {
      "inputs": [
        {
          "internalType": "string",
          "name": "_content",
          "type": "string"
        }
      ],
      "name": "createTweets",
      "outputs": [],
      "stateMutability": "nonpayable",
      "type": "function"
    },
    {
      "inputs": [
        {
          "internalType": "uint256",
          "name": "_index",
          "type": "uint256"
        }
      ],
      "name": "delTweets",
      "outputs": [],
      "stateMutability": "nonpayable",
      "type": "function"
    },
    {
      "inputs": [
        {
          "internalType": "uint256",
          "name": "_index",
          "type": "uint256"
        },
        {
          "internalType": "string",
          "name": "_newcontent",
          "type": "string"
        }
      ],
      "name": "editTweets",
      "outputs": [],
      "stateMutability": "nonpayable",
      "type": "function"
    },
    {
      "inputs": [
        {
          "internalType": "uint256",
          "name": "_index",
          "type": "uint256"
        }
      ],
      "name": "likeTweet",
      "outputs": [],
      "stateMutability": "nonpayable",
      "type": "function"
    },
    {
      "inputs": [],
      "name": "readTweets",
      "outputs": [
        {
          "components": [
            {
              "internalType": "uint256",
              "name": "id",
              "type": "uint256"
            },
            {
              "internalType": "string",
              "name": "content",
              "type": "string"
            },
            {
              "internalType": "string",
              "name": "hash",
              "type": "string"
            },
            {
              "internalType": "address payable",
              "name": "author",
              "type": "address"
            },
            {
              "internalType": "bool",
              "name": "deleted",
              "type": "bool"
            },
            {
              "internalType": "uint256",
              "name": "likes",
              "type": "uint256"
            },
            {
              "internalType": "uint256",
              "name": "postedAt",
              "type": "uint256"
            },
            {
              "internalType": "uint256",
              "name": "tipAmount",
              "type": "uint256"
            }
          ],
          "internalType": "struct Tweets.Tweeter[]",
          "name": "",
          "type": "tuple[]"
        }
      ],
      "stateMutability": "view",
      "type": "function"
    },
    {
      "inputs": [
        {
          "internalType": "uint256",
          "name": "_index",
          "type": "uint256"
        },
        {
          "internalType": "uint256",
          "name": "_tipAmount",
          "type": "uint256"
        }
      ],
      "name": "tipPost",
      "outputs": [],
      "stateMutability": "payable",
      "type": "function"
    },
    {
      "inputs": [
        {
          "internalType": "uint256",
          "name": "",
          "type": "uint256"
        }
      ],
      "name": "tweets",
      "outputs": [
        {
          "internalType": "uint256",
          "name": "id",
          "type": "uint256"
        },
        {
          "internalType": "string",
          "name": "content",
          "type": "string"
        },
        {
          "internalType": "string",
          "name": "hash",
          "type": "string"
        },
        {
          "internalType": "address payable",
          "name": "author",
          "type": "address"
        },
        {
          "internalType": "bool",
          "name": "deleted",
          "type": "bool"
        },
        {
          "internalType": "uint256",
          "name": "likes",
          "type": "uint256"
        },
        {
          "internalType": "uint256",
          "name": "postedAt",
          "type": "uint256"
        },
        {
          "internalType": "uint256",
          "name": "tipAmount",
          "type": "uint256"
        }
      ],
      "stateMutability": "view",
      "type": "function"
    }
  ],
  "bytecode": "0x60806040523480156200001157600080fd5b50604051620022e2380380620022e28339818101604052810190620000379190620005b8565b62000066604051806060016040528060228152602001620022c060229139620000c960201b62000daf1760201c565b62000077816200016c60201b60201c565b620000c26040518060400160405280601281526020017f3173742074776565742043726561746564210000000000000000000000000000815250620000c960201b62000daf1760201c565b506200082f565b6200016981604051602401620000e0919062000666565b6040516020818303038152906040527f41304fac000000000000000000000000000000000000000000000000000000007bffffffffffffffffffffffffffffffffffffffffffffffffffffffff19166020820180517bffffffffffffffffffffffffffffffffffffffffffffffffffffffff83818316178352505050506200034260201b60201c565b50565b60008151116200017b57600080fd5b60006001600080549050620001919190620006c3565b905060008042905060008060405180602001604052806000815250905060006040518061010001604052808781526020018881526020018381526020013373ffffffffffffffffffffffffffffffffffffffff168152602001600015158152602001868152602001858152602001848152509080600181540180825580915050600190039060005260206000209060070201600090919091909150600082015181600001556020820151816001019080519060200190620002549291906200036b565b506040820151816002019080519060200190620002739291906200036b565b5060608201518160030160006101000a81548173ffffffffffffffffffffffffffffffffffffffff021916908373ffffffffffffffffffffffffffffffffffffffff16021790555060808201518160030160146101000a81548160ff02191690831515021790555060a0820151816004015560c0820151816005015560e0820151816006015550507f3f5062188f101b9ac92d79b6f191d73b0f0e7cd717a6d3a0a0b82518fdd0be3c8587338760405162000332949392919062000776565b60405180910390a1505050505050565b60008151905060006a636f6e736f6c652e6c6f679050602083016000808483855afa5050505050565b8280546200037990620007f9565b90600052602060002090601f0160209004810192826200039d5760008555620003e9565b82601f10620003b857805160ff1916838001178555620003e9565b82800160010185558215620003e9579182015b82811115620003e8578251825591602001919060010190620003cb565b5b509050620003f89190620003fc565b5090565b5b8082111562000417576000816000905550600101620003fd565b5090565b6000604051905090565b600080fd5b600080fd5b600080fd5b600080fd5b6000601f19601f8301169050919050565b7f4e487b7100000000000000000000000000000000000000000000000000000000600052604160045260246000fd5b620004848262000439565b810181811067ffffffffffffffff82111715620004a657620004a56200044a565b5b80604052505050565b6000620004bb6200041b565b9050620004c9828262000479565b919050565b600067ffffffffffffffff821115620004ec57620004eb6200044a565b5b620004f78262000439565b9050602081019050919050565b60005b838110156200052457808201518184015260208101905062000507565b8381111562000534576000848401525b50505050565b6000620005516200054b84620004ce565b620004af565b90508281526020810184848401111562000570576200056f62000434565b5b6200057d84828562000504565b509392505050565b600082601f8301126200059d576200059c6200042f565b5b8151620005af8482602086016200053a565b91505092915050565b600060208284031215620005d157620005d062000425565b5b600082015167ffffffffffffffff811115620005f257620005f16200042a565b5b620006008482850162000585565b91505092915050565b600081519050919050565b600082825260208201905092915050565b6000620006328262000609565b6200063e818562000614565b93506200065081856020860162000504565b6200065b8162000439565b840191505092915050565b6000602082019050818103600083015262000682818462000625565b905092915050565b6000819050919050565b7f4e487b7100000000000000000000000000000000000000000000000000000000600052601160045260246000fd5b6000620006d0826200068a565b9150620006dd836200068a565b9250827fffffffffffffffffffffffffffffffffffffffffffffffffffffffffffffffff0382111562000715576200071462000694565b5b828201905092915050565b6200072b816200068a565b82525050565b600073ffffffffffffffffffffffffffffffffffffffff82169050919050565b60006200075e8262000731565b9050919050565b620007708162000751565b82525050565b60006080820190506200078d600083018762000720565b8181036020830152620007a1818662000625565b9050620007b2604083018562000765565b620007c1606083018462000720565b95945050505050565b7f4e487b7100000000000000000000000000000000000000000000000000000000600052602260045260246000fd5b600060028204905060018216806200081257607f821691505b60208210811415620008295762000828620007ca565b5b50919050565b611a81806200083f6000396000f3fe6080604052600436106100865760003560e01c8063989bb70411610059578063989bb70414610131578063b02b6ee31461015a578063c06585bb14610183578063e8d857b01461019f578063f3c6a42b146101e357610086565b80630a7aa8a11461008b5780631f212b61146100b45780635ffc6ceb146100dd5780637f80af8814610106575b600080fd5b34801561009757600080fd5b506100b260048036038101906100ad919061106e565b61020e565b005b3480156100c057600080fd5b506100db60048036038101906100d691906110ed565b6103db565b005b3480156100e957600080fd5b5061010460048036038101906100ff9190611149565b610508565b005b34801561011257600080fd5b5061011b610594565b6040516101289190611185565b60405180910390f35b34801561013d57600080fd5b5061015860048036038101906101539190611149565b6105a6565b005b34801561016657600080fd5b50610181600480360381019061017c91906111a0565b6106c8565b005b61019d60048036038101906101989190611218565b610895565b005b3480156101ab57600080fd5b506101c660048036038101906101c19190611149565b6109fd565b6040516101da98979695949392919061133c565b60405180910390f35b3480156101ef57600080fd5b506101f8610b92565b60405161020591906115b8565b60405180910390f35b600081511161021c57600080fd5b600060016000805490506102309190611609565b905060008042905060008060405180602001604052806000815250905060006040518061010001604052808781526020018881526020018381526020013373ffffffffffffffffffffffffffffffffffffffff1681526020016000151581526020018681526020018581526020018481525090806001815401808255809150506001900390600052602060002090600702016000909190919091506000820151816000015560208201518160010190805190602001906102f1929190610e71565b50604082015181600201908051906020019061030e929190610e71565b5060608201518160030160006101000a81548173ffffffffffffffffffffffffffffffffffffffff021916908373ffffffffffffffffffffffffffffffffffffffff16021790555060808201518160030160146101000a81548160ff02191690831515021790555060a0820151816004015560c0820151816005015560e0820151816006015550507f3f5062188f101b9ac92d79b6f191d73b0f0e7cd717a6d3a0a0b82518fdd0be3c858733876040516103cb949392919061165f565b60405180910390a1505050505050565b600082905060008082815481106103f5576103f46116ab565b5b90600052602060002090600702019050600083511161041357600080fd5b8060030160009054906101000a900473ffffffffffffffffffffffffffffffffffffffff1673ffffffffffffffffffffffffffffffffffffffff163373ffffffffffffffffffffffffffffffffffffffff16146104a5576040517f08c379a000000000000000000000000000000000000000000000000000000000815260040161049c9061174c565b60405180910390fd5b828160010190805190602001906104bd929190610e71565b507f3f5062188f101b9ac92d79b6f191d73b0f0e7cd717a6d3a0a0b82518fdd0be3c82826001013384600401546040516104fa9493929190611862565b60405180910390a150505050565b60008190506000808281548110610522576105216116ab565b5b90600052602060002090600702019050600181600401546105439190611609565b81600401819055507f3f5062188f101b9ac92d79b6f191d73b0f0e7cd717a6d3a0a0b82518fdd0be3c82826001013384600401546040516105879493929190611862565b60405180910390a1505050565b60008060008054905090508091505090565b600081905060008082815481106105c0576105bf6116ab565b5b906000526020600020906007020190508060030160009054906101000a900473ffffffffffffffffffffffffffffffffffffffff1673ffffffffffffffffffffffffffffffffffffffff163373ffffffffffffffffffffffffffffffffffffffff1614610662576040517f08c379a000000000000000000000000000000000000000000000000000000000815260040161065990611920565b60405180910390fd5b60018160030160146101000a81548160ff0219169083151502179055507f3f5062188f101b9ac92d79b6f191d73b0f0e7cd717a6d3a0a0b82518fdd0be3c82826001013384600401546040516106bb9493929190611862565b60405180910390a1505050565b60008151116106d657600080fd5b60008251116106e457600080fd5b600060016000805490506106f89190611609565b905060008042905060008085905060006040518061010001604052808781526020018981526020018381526020013373ffffffffffffffffffffffffffffffffffffffff1681526020016000151581526020018681526020018581526020018481525090806001815401808255809150506001900390600052602060002090600702016000909190919091506000820151816000015560208201518160010190805190602001906107aa929190610e71565b5060408201518160020190805190602001906107c7929190610e71565b5060608201518160030160006101000a81548173ffffffffffffffffffffffffffffffffffffffff021916908373ffffffffffffffffffffffffffffffffffffffff16021790555060808201518160030160146101000a81548160ff02191690831515021790555060a0820151816004015560c0820151816005015560e0820151816006015550507f3f5062188f101b9ac92d79b6f191d73b0f0e7cd717a6d3a0a0b82518fdd0be3c85883387604051610884949392919061165f565b60405180910390a150505050505050565b600082905060008082815481106108af576108ae6116ab565b5b90600052602060002090600702019050600083116108cc57600080fd5b34925060008160030160009054906101000a900473ffffffffffffffffffffffffffffffffffffffff1673ffffffffffffffffffffffffffffffffffffffff168460405161091990611971565b60006040518083038185875af1925050503d8060008114610956576040519150601f19603f3d011682016040523d82523d6000602084013e61095b565b606091505b505090508061099f576040517f08c379a0000000000000000000000000000000000000000000000000000000008152600401610996906119d2565b60405180910390fd5b8382600601546109af9190611609565b82600601819055507f857a474f7d18ba7614a11cc88bce5fd9cf05678441e1cb7c7eac53fecf3a8abd838360060154336040516109ee939291906119f2565b60405180910390a15050505050565b60008181548110610a0d57600080fd5b9060005260206000209060070201600091509050806000015490806001018054610a369061179b565b80601f0160208091040260200160405190810160405280929190818152602001828054610a629061179b565b8015610aaf5780601f10610a8457610100808354040283529160200191610aaf565b820191906000526020600020905b815481529060010190602001808311610a9257829003601f168201915b505050505090806002018054610ac49061179b565b80601f0160208091040260200160405190810160405280929190818152602001828054610af09061179b565b8015610b3d5780601f10610b1257610100808354040283529160200191610b3d565b820191906000526020600020905b815481529060010190602001808311610b2057829003601f168201915b5050505050908060030160009054906101000a900473ffffffffffffffffffffffffffffffffffffffff16908060030160149054906101000a900460ff16908060040154908060050154908060060154905088565b60606000805480602002602001604051908101604052809291908181526020016000905b82821015610da657838290600052602060002090600702016040518061010001604052908160008201548152602001600182018054610bf49061179b565b80601f0160208091040260200160405190810160405280929190818152602001828054610c209061179b565b8015610c6d5780601f10610c4257610100808354040283529160200191610c6d565b820191906000526020600020905b815481529060010190602001808311610c5057829003601f168201915b50505050508152602001600282018054610c869061179b565b80601f0160208091040260200160405190810160405280929190818152602001828054610cb29061179b565b8015610cff5780601f10610cd457610100808354040283529160200191610cff565b820191906000526020600020905b815481529060010190602001808311610ce257829003601f168201915b505050505081526020016003820160009054906101000a900473ffffffffffffffffffffffffffffffffffffffff1673ffffffffffffffffffffffffffffffffffffffff1673ffffffffffffffffffffffffffffffffffffffff1681526020016003820160149054906101000a900460ff16151515158152602001600482015481526020016005820154815260200160068201548152505081526020019060010190610bb6565b50505050905090565b610e4581604051602401610dc39190611a29565b6040516020818303038152906040527f41304fac000000000000000000000000000000000000000000000000000000007bffffffffffffffffffffffffffffffffffffffffffffffffffffffff19166020820180517bffffffffffffffffffffffffffffffffffffffffffffffffffffffff8381831617835250505050610e48565b50565b60008151905060006a636f6e736f6c652e6c6f679050602083016000808483855afa5050505050565b828054610e7d9061179b565b90600052602060002090601f016020900481019282610e9f5760008555610ee6565b82601f10610eb857805160ff1916838001178555610ee6565b82800160010185558215610ee6579182015b82811115610ee5578251825591602001919060010190610eca565b5b509050610ef39190610ef7565b5090565b5b80821115610f10576000816000905550600101610ef8565b5090565b6000604051905090565b600080fd5b600080fd5b600080fd5b600080fd5b6000601f19601f8301169050919050565b7f4e487b7100000000000000000000000000000000000000000000000000000000600052604160045260246000fd5b610f7b82610f32565b810181811067ffffffffffffffff82111715610f9a57610f99610f43565b5b80604052505050565b6000610fad610f14565b9050610fb98282610f72565b919050565b600067ffffffffffffffff821115610fd957610fd8610f43565b5b610fe282610f32565b9050602081019050919050565b82818337600083830152505050565b600061101161100c84610fbe565b610fa3565b90508281526020810184848401111561102d5761102c610f2d565b5b611038848285610fef565b509392505050565b600082601f83011261105557611054610f28565b5b8135611065848260208601610ffe565b91505092915050565b60006020828403121561108457611083610f1e565b5b600082013567ffffffffffffffff8111156110a2576110a1610f23565b5b6110ae84828501611040565b91505092915050565b6000819050919050565b6110ca816110b7565b81146110d557600080fd5b50565b6000813590506110e7816110c1565b92915050565b6000806040838503121561110457611103610f1e565b5b6000611112858286016110d8565b925050602083013567ffffffffffffffff81111561113357611132610f23565b5b61113f85828601611040565b9150509250929050565b60006020828403121561115f5761115e610f1e565b5b600061116d848285016110d8565b91505092915050565b61117f816110b7565b82525050565b600060208201905061119a6000830184611176565b92915050565b600080604083850312156111b7576111b6610f1e565b5b600083013567ffffffffffffffff8111156111d5576111d4610f23565b5b6111e185828601611040565b925050602083013567ffffffffffffffff81111561120257611201610f23565b5b61120e85828601611040565b9150509250929050565b6000806040838503121561122f5761122e610f1e565b5b600061123d858286016110d8565b925050602061124e858286016110d8565b9150509250929050565b600081519050919050565b600082825260208201905092915050565b60005b83811015611292578082015181840152602081019050611277565b838111156112a1576000848401525b50505050565b60006112b282611258565b6112bc8185611263565b93506112cc818560208601611274565b6112d581610f32565b840191505092915050565b600073ffffffffffffffffffffffffffffffffffffffff82169050919050565b600061130b826112e0565b9050919050565b61131b81611300565b82525050565b60008115159050919050565b61133681611321565b82525050565b600061010082019050611352600083018b611176565b8181036020830152611364818a6112a7565b9050818103604083015261137881896112a7565b90506113876060830188611312565b611394608083018761132d565b6113a160a0830186611176565b6113ae60c0830185611176565b6113bb60e0830184611176565b9998505050505050505050565b600081519050919050565b600082825260208201905092915050565b6000819050602082019050919050565b6113fd816110b7565b82525050565b600082825260208201905092915050565b600061141f82611258565b6114298185611403565b9350611439818560208601611274565b61144281610f32565b840191505092915050565b61145681611300565b82525050565b61146581611321565b82525050565b60006101008301600083015161148460008601826113f4565b506020830151848203602086015261149c8282611414565b915050604083015184820360408601526114b68282611414565b91505060608301516114cb606086018261144d565b5060808301516114de608086018261145c565b5060a08301516114f160a08601826113f4565b5060c083015161150460c08601826113f4565b5060e083015161151760e08601826113f4565b508091505092915050565b600061152e838361146b565b905092915050565b6000602082019050919050565b600061154e826113c8565b61155881856113d3565b93508360208202850161156a856113e4565b8060005b858110156115a657848403895281516115878582611522565b945061159283611536565b925060208a0199505060018101905061156e565b50829750879550505050505092915050565b600060208201905081810360008301526115d28184611543565b905092915050565b7f4e487b7100000000000000000000000000000000000000000000000000000000600052601160045260246000fd5b6000611614826110b7565b915061161f836110b7565b9250827fffffffffffffffffffffffffffffffffffffffffffffffffffffffffffffffff03821115611654576116536115da565b5b828201905092915050565b60006080820190506116746000830187611176565b818103602083015261168681866112a7565b90506116956040830185611312565b6116a26060830184611176565b95945050505050565b7f4e487b7100000000000000000000000000000000000000000000000000000000600052603260045260246000fd5b7f54776565742063616e206f6e6c7920626520656469746564206279206f776e6560008201527f7200000000000000000000000000000000000000000000000000000000000000602082015250565b6000611736602183611263565b9150611741826116da565b604082019050919050565b6000602082019050818103600083015261176581611729565b9050919050565b7f4e487b7100000000000000000000000000000000000000000000000000000000600052602260045260246000fd5b600060028204905060018216806117b357607f821691505b602082108114156117c7576117c661176c565b5b50919050565b60008190508160005260206000209050919050565b600081546117ef8161179b565b6117f98186611263565b94506001821660008114611814576001811461182657611859565b60ff1983168652602086019350611859565b61182f856117cd565b60005b8381101561185157815481890152600182019150602081019050611832565b808801955050505b50505092915050565b60006080820190506118776000830187611176565b818103602083015261188981866117e2565b90506118986040830185611312565b6118a56060830184611176565b95945050505050565b7f54776565742063616e206f6e6c792062652064656c65746564206279206f776e60008201527f6572000000000000000000000000000000000000000000000000000000000000602082015250565b600061190a602283611263565b9150611915826118ae565b604082019050919050565b60006020820190508181036000830152611939816118fd565b9050919050565b600081905092915050565b50565b600061195b600083611940565b91506119668261194b565b600082019050919050565b600061197c8261194e565b9150819050919050565b7f4661696c656420746f2073656e64204574686572000000000000000000000000600082015250565b60006119bc601483611263565b91506119c782611986565b602082019050919050565b600060208201905081810360008301526119eb816119af565b9050919050565b6000606082019050611a076000830186611176565b611a146020830185611176565b611a216040830184611312565b949350505050565b60006020820190508181036000830152611a4381846112a7565b90509291505056fea264697066735822122029c41f7198f246852255fd79fddad2f2b9e1df6f50e1d08f0839652304e5435364736f6c634300080a00335477656574657220536d61727420436f6e7472616374204465706c6f79656420283a",
  "linkReferences": {},
  "deployedLinkReferences": {}
}